:040268000000000092
:03026400010F0087
:0802570012024A12025F80FE50
:0D024A007580FF7590FF75A0FF75B0FF2255
:05025F00D2A8D2AF227D
:030003000200FCFC
:1000FC00C0E0C0F0C083C082C0D075D000C000C0CA
:0D010C0001C002C003C004C005C006C0074A
:10011900E4F508F509F50A780B7C00FD7BFF7A0206
:100129007968FE7F041200D6C2A87F00E5B030E2EC
:1001390004D2A880650FBFFFF3E5B030E2FB7F0072
:10014900750800E5B020E2FBE5B030E2FBE5B03030
:10015900E218750A00050AE50AB421F9AE0905098C
:10016900EEC3941E40E7D2A88030740B2FF8C0006C
:10017900E6C313D000F6E509C394084008740B2FB1
:10018900F8E64480F67509000508E508B408B40FD7
:0A019900BF04ADE50DF4F5A0D2A8F7
:1001A300D007D006D005D004D003D002D001D000B0
:0B01B300D0D0D082D083D0F0D0E0325A
:030000000201BE3C
:0C01BE00787FE4F6D8FD75810F02020581
:10000600E709F608DFFA8046E709F208DFFA803EDC
:1000160088828C83E709F0A3DFFA8032E309F608C9
:10002600DFFA8078E309F208DFFA807088828C8331
:10003600E309F0A3DFFA806489828A83E0A3F608E5
:10004600DFFA805889828A83E0A3F208DFFA804CBF
:1000560080D280FA80C680D4806980F28033801096
:1000660080A680EA809A80A880DA80E280CA8033FF
:1000760089828A83ECFAE493A3C8C582C8CCC58377
:10008600CCF0A3C8C582C8CCC583CCDFE9DEE78047
:100096000D89828A83E493A3F608DFF9ECFAA9F0C6
:1000A600EDFB2289828A83ECFAE0A3C8C582C8CC1C
:1000B600C583CCF0A3C8C582C8CCC583CCDFEADE35
:1000C600E880DB89828A83E493A3F208DFF980CC97
:1000D60088F0EF60010E4E60C388F0ED2402B40490
:1000E6000050B9F582EB2402B4040050AF23234537
:0600F60082239000567306
:1001CA00020257E493A3F8E493A34003F68001F2F2
:1001DA0008DFF48029E493A3F85407240CC8C33336
:1001EA00C4540F4420C8834004F456800146F6DF05
:1001FA00E4800B0102040810204080900264E47E2F
:10020A00019360BCA3FF543F30E509541FFEE493F9
:10021A00A360010ECF54C025E060A840B8E493A3C0
:10022A00FAE493A3F8E493A3C8C582C8CAC583CAEB
:10023A00F0A3C8C582C8CAC583CADFE9DEE780BEA3
:010267000096
:00000001FF
